:020000040800F2
:10000000580501209D010008393A0008153A0008FA
:10001000353A0008F10D000899450008000000007D
:1000200000000000000000000000000099420008ED
:10003000250E000800000000413A00089D4200081B
:10004000B7010008B7010008B7010008B7010008B0
:10005000B7010008B7010008B7010008B7010008A0
:10006000B7010008B7010008B7010008B701000890
:10007000B7010008B7010008B7010008B701000880
:10008000B7010008B70100081D0D0008B7010008FE
:10009000B7010008B7010008B7010008B701000860
:1000A000B70100086D430008B7010008B701000858
:1000B000B7010008B7010008B7010008B701000840
:1000C000B7010008B7010008B7010008B701000830
:1000D000B7010008B7010008B7010008B701000820
:1000E000B7010008B7010008B7010008B701000810
:1000F000B7010008B7010008B7010008B701000800
:10010000B70100087D3A0008B7010008B7010008F0
:10011000B7010008B7010008B7010008B7010008DF
:10012000F50D0008B7010008190E0008B701000816
:10013000B7010008B7010008B7010008B7010008BF
:10014000B7010008B7010008B7010008B7010008AF
:10015000B7010008B7010008B7010008B70100089F
:10016000B7010008B7010008B7010008B70100088F
:10017000B7010008B7010008B7010008000000003F
:10018000B7010008B7010008DFF80CD000F082FBCF
:100190000048004771710008580501200648804753
:1001A00006480047FEE7FEE7FEE7FEE7FEE7FEE75C
:1001B000FEE7FEE7FEE7FEE7594300088901000875
:1001C0002DE9F05F0546002092469B46884606468C
:1001D000814640241BE0284641464746224600F01F
:1001E000FCF953465A46C01A914110D3114618469D
:1001F000224600F0E3F92D1A67EB01084F4622462C
:100200000120002100F0DAF917EB00094E41201E11
:10021000A4F10104DFDC484631462A464346BDE8E6
:10022000F09FD2B201E000F8012B491EFBD27047CB
:100230000022F6E710B513460A4604461946FFF7B2
:10024000F0FF204610BD00000FB400B589B00BA828
:1002500000906A4603480A9900F0DEF909B05DF89B
:1002600014FB0000000000202DE9FF5F1D464FF049
:10027000FF3BD5E9014691465F464FF00008A9696A
:100280007F1C01988847296A824688470028F6D152
:10029000BAF1FF3F0CD024F4C064002E19DD6006D3
:1002A00014D5BAF12B0F09D0BAF12D0F0ED103E0FE
:1002B000584604B0BDE8F09F44F48064A9697F1CEF
:1002C00001988847761E8246002E02DDBAF1300F73
:1002D00003D0B9F1000F26D032E0A969761E44F4AC
:1002E00000747F1C019888478246002E05DDBAF114
:1002F000780F06D0BAF1580F03D0B9F1000F10D023
:100300001EE0B9F1000F02D0B9F1100F18D1A969A0
:10031000761E24F400747F1C0198884782461020C2
:1003200002E0082000E00A20814609E008FB0908F5
:10033000A969761E44F400747F1C019888478246A0
:10034000002E05DD4946504600F057F90028EDDA49
:10035000E96901988847A00502D46FF00100A8E779
:10036000E00725D1600613D5600502D5C8F100006D
:1003700000E0404629680A1D2A600968220501D567
:10038000087015E0220701D5088011E008600FE031
:100390002868011D29600068210502D580F80080C9
:1003A00006E0210702D5A0F8008001E0C0F8008037
:1003B00038467EE72DE9FE4F81EA030404F000444D
:1003C00021F0004100944FF0000B23F0004350EA6D
:1003D00001045ED052EA03045BD0C3F30A54C1F3B4
:1003E0000A552C44A4F2F3340194A0FB0254C1F347
:1003F000130141F48011C3F3130343F4801301FB91
:10040000024400FB034E840A970A44EA815447EAF7
:100410008357A4FB076802958D0A05FB07854FEA01
:10042000932C04FB0C542705029D4FEA065847EA1B
:100430001637B5EB08056EEB070C870E920E47EAF0
:10044000811742EA8312A7FB0201B6EB0B0164EBB2
:1004500000042B0D43EA0C335E1844EB1C50DA46C3
:100460005146E7FB0201C5F313044FEA0B3343EA9D
:1004700014534FEA0432019C43EA0603A4F10C042E
:100480000294009CCDE900B400F0DFF803B0BDE8B1
:10049000F08F00200146F9E72DE9F04D81EA0304D1
:1004A00004F0004B21F0004514464FF0000A23F001
:1004B000004150EA050220D054EA01021DD0C5F3E4
:1004C0000A570246C5F31303C1F31300C1F30A56DA
:1004D00040F4801543F48013A7EB0608101BD646A2
:1004E00008F2FD3873EB050002D308F1010801E0C2
:1004F00092185B41B8F1000F03DA00200146BDE815
:10050000F08D00204FF48011064684460EE0171B44
:1005100073EB050705D3121B63EB050306434CEA97
:10052000010C49084FEA300092185B4150EA01077C
:10053000EDD152EA030012D082EA040083EA0501F9
:10054000084305D0101BAB4106D20122002306E070
:1005500000224FF0004302E06FF0010253101AEB4B
:1005600006004CEB085110EB0A0041EB0B01BDE813
:10057000F04D00F05BB80EB540F23341029100211E
:10058000CDE900110A460B4600F05FF803B000BD4C
:1005900030B50B46014600202022012409E021FA53
:1005A00002F59D4205D303FA02F5491B04FA02F550
:1005B0002844151EA2F10102F1DC30BD202A04DB23
:1005C000203A00FA02F1002070479140C2F1200366
:1005D00020FA03F3194390407047202A04DB203AA5
:1005E00021FA02F00021704721FA02F3D040C2F153
:1005F000200291400843194670473A2800D230380B
:1006000020F02002412A01D3A2F13700884201D311
:100610004FF0FF3070470000024B9361024BD361F3
:1006200000F078B95D640008D508000810B5141E04
:1006300073F1000408DA401C41F1000192185B419B
:100640001A4301D120F0010010BD2DE9F04D924672
:100650009B4611B1B1FA81F202E0B0FA80F2203289
:100660009046FFF7ABFF04460F4640EA0A0041EA16
:100670000B0153465A46084313D0114653EA010072
:1006800019D0C8F140025046FFF7A7FF05460E46B5
:10069000504659464246FFF791FF084305D00120D6
:1006A00004E020463946BDE8F08D0020054346EAC7
:1006B000E0762C4337430A986305E40AA0EB080070
:1006C0000022FD0A44EA47540A3002D500200146C0
:1006D000E9E7010510196941DDE90845001969419B
:1006E000BDE8F04DA2E72DE9FE4F804681EA030008
:1006F000C00F0C46009021F0004123F00045B8EBFC
:100700000200A94105D24046214690461C460B46B0
:10071000024623F00040104347D0270DC7F30A00DC
:10072000C3F30A510290401A019040286BDAC3F3D8
:10073000130040F4801B0098924620B10023D2EBB6
:10074000030A63EB0B0B01985946C0F14002504677
:10075000FFF734FF06460D4650465946019A00F011
:10076000C1F810EB08006141002487EA115284EAC5
:10077000E7731A4340D0009A62B3019A012A4FEA04
:10078000075215DC001B61EB02014FF0004202EA48
:100790000752CDE90042001C41F5801132462B463C
:1007A000FFF753FF03B0BDE8F08F40462146F9E75D
:1007B000001B61EB0201001C41F5801300185B4136
:1007C0002018A2F5001747EB030140EAD570B619CF
:1007D0006D4111E06D084FEA360645EAC0754FEAF3
:1007E0000752001B61EB0201001C41F58011490812
:1007F0004FEA30000019514132462B4603B0BDE8A4
:10080000F04FFFF713BF0098012240000023D0EB08
:10081000020263EBE073009821464FEAE074B8EB04
:10082000000061EB0401E9E783F000435BE781F03E
:10083000004158E7C1F30A52C1F3130140F2FF33FC
:1008400041F480119A4202DA00200146704740F2DA
:1008500033439A42A2F2334202DC5242FFF7BDBE5A
:10086000FFF7ACBE30B5041E71F1000404DB4FF09D
:100870000044404264EB0101141E73F1000405DBE7
:100880001C464FF00043524263EB0403994208BFF9
:10089000904230BD064C074D06E0E06840F0010391
:1008A00094E8070098471034AC42F6D3FFF770FC89
:1008B000788C0008988C0008094910B508784C1C01
:1008C00018B1401E0870205C10BD00210720ABBE8F
:1008D000207010BD02490878421C0A707047000061
:1008E00008000020202A06DBCB17203A41FA02F04C
:1008F00043EAE07306E041FA02F3D040C2F120027D
:10090000914008431946704702681144137801600A
:1009100018467047D16004495161044911620021B1
:100920001161114600F00AB80909000831090008F0
:10093000C0B24FF4F05100F097B900002DE9F34F29
:100940008BB04FF0000801F10C000C464FF0010B8A
:1009500046460DF1080A019062690121019890470D
:10096000051E2DD0252D2CD0216A8847C0B1626983
:10097000012101989047216A88470028F7D1411E3C
:1009800062690198904700E0761CA1690B9888473E
:10099000216A88470028F7D1E1690B988847DBE78F
:1009A000A1690B9888470746A84201D1761CD3E776
:1009B000E1690B9888477F1C02D1B8F1000F6FD016
:1009C00046E1002762693D463946019890472A284A
:1009D00004D162690121019890470125DFF88492D2
:1009E0006269012101989047A0F130010A290AD2D9
:1009F0004F45E5DC07EB870100EB4107303FDFD4D3
:100A000045F01005ECE7E90601D46FF000476C28CB
:100A10000AD04C2814D0682815D06A280DD0742824
:100A20001CD07A281AD01DE06269012101989047F4
:100A30006C2802D045F0040514E045F002050DE0F5
:100A400045F020050AE06269012101989047682875
:100A500002D045F0080505E045F400656269012112
:100A600001989047C4E9015765283DD019DC582802
:100A70007AD00CDC452837D004DC252826D0412844
:100A800031D131E046282FD047282CD12CE05B28EB
:100A900077D0612828D063287CD0642823D15AE0FD
:100AA000D0E06F2848D008DC66281DD067281BD00E
:100AB000692821D06E2816D127E0702845D07328E8
:100AC00068D0752847D078280DD14DE0A1690B98E2
:100AD0008847054625283FF469AFE1690B988847A8
:100AE0006D1C3FF46AAFB3E023466A466FF0010025
:100AF0000B99AFF300809EE045F040006060A807CE
:100B000023464FF0000236D43EE0E8077FF447AFBB
:100B10002068011D21600068290501D506701BE7CA
:100B2000290701D5068017E7A90703D5F117C0E902
:100B3000006111E706600FE745F040006060A8071C
:100B400023464FF0080216D41EE040F60E0125EAB7
:100B50000100606016E045F040006060A807234691
:100B60004FF00A0207D40FE045F040006060A8078C
:100B700008D5234610226FF001000B99AFF30080D7
:100B800059E007E0234610226FF001000B99FFF7B0
:100B90006BFB50E04FF000094F464B46632802D0F4
:100BA0005B2806D040E0E80601D40120A0600127C0
:100BB0003AE062690121019890475E2805D14FF023
:100BC00001096269494601989047216939B90021B4
:100BD0000A46534643F82120491C0829FADBB0B3E2
:100BE000216969B9C11700EBD16253110AEB830186
:100BF00022F01F02821A01200B68904003430B6011
:100C000062690121019890475D28E8D1B9F1000F90
:100C100009D00020514651F82020D24341F820202D
:100C2000401C0828F7DB02AB224600976FF001005A
:100C30000B99AFF3008000280CDA401C08D1BBF1FF
:100C4000000F05D04FF0FF300DB0BDE8F08FFFE78B
:100C50004046F9E7E90701D108F1010806444FF0E1
:100C6000000B79E6CCCCCC0C7F2801D9002208E01F
:100C7000064A02EB5002C007127800D1120902F0B6
:100C80000F0201209040084070470000D086000805
:100C90000146806B036C026C13F0500F08D0D20633
:100CA00048BF00F093B9806BC26C0846104700BF84
:100CB00042F40071016401688A6812F0405F01D05B
:100CC00000F080B9027E002AFAD1CA6A12F4700FCD
:100CD00002D08A685205F3D44A6822F020024A60A2
:100CE000016C21F480710164016CC90448BF00F0FB
:100CF00069B9016C41F00101016400F063B90000C1
:100D0000806B40210164416C41F00401416400F0BA
:100D10005DB90000806B00F057B9000080B540F26B
:100D2000F020C2F2000000F053F940F23830C2F275
:100D30000000BDE8804000F04BB9000070470000A3
:100D4000014640F24040C2F2000001F0A3BB0000A7
:100D500080B540F24040C2F2000001F0ADFB043823
:100D600018BF012080BD000080B500F00DF80128FB
:100D70001CBF012080BD40F24040C2F20000BDE82F
:100D8000804001F0FFBC000081B001208DF803001D
:100D90009DF8030001B0704780B582B09C461346B1
:100DA0000A46014640F24040C2F20000CDF800C0C1
:100DB00001F078FE002818BF012002B080BD0000BD
:100DC0007047000080B582B09C4613460A46014633
:100DD00040F24040C2F20000CDF800C001F088FFB0
:100DE000002818BF012002B080BD0000704700003D
:100DF000FEE7000010B540F28034C2F20004204645
:100E000000F0B8FB204600F0B5FB40F22000C2F233
:100E100000000121017010BD40F2E030C2F200007C
:100E200000F0A8BB70470000EFF3108072B600BF5F
:100E3000FEE7000080B540F2E423C2F200035A7AD4
:100E4000002A1CBF012080BD93F809C086460020FF
:100E500003F80C005A7A03EB8202C2F804E05A7AD3
:100E60001A44107293F809C00CF101025A720CF185
:100E700030020A7042F63A72A1F80120C87080BDB3
:100E80007047000070B581B00022009290F83C20BD
:100E9000012A03D10221084601B070BDD1F800E05B
:100EA0000122BEF10A0F80F83C200BD31FFA8EF20C
:100EB0005200066812FA8EF2A2F11E0306F10C022D
:100EC00005E000BF06680EEB4E0306F110024FF07E
:100ED000070C15680CFA03F4A54315608D681468B7
:100EE00005FA03F3234313604968062906D801EB8A
:100EF0008101053906F134020AE000BF0C2901EB3B
:100F0000810187BF413906F12C02233906F13002F5
:100F10001F2314688B4024EA030342F2043C13604D
:100F2000C4F2010C1FFA8EF3146803FA01F1ACF558
:100F3000417321439E4211603ED1BEF1120F07D191
:100F4000DCF8001041F48001CCF8001034E000BF60
:100F50002EF0010110292FD1DCF80010BEF1100F86
:100F600041F40001CCF8001026D140F21801C2F281
:100F7000000109684DF68362C4F21B32A1FB021224
:100F8000910C01EB8101490000910099A1B10099F8
:100F900001390091009979B10099013900910099C6
:100FA00051B1009901390091009929B10099013995
:100FB000009100990029EAD1002180F83C100846F0
:100FC00001B070BD7047000070470000704700001E
:100FD00070B50446006806684568B10717D515F076
:100FE000200114D0216CC90603D4216C41F4007196
:100FF0002164816811F0405F02D1217E002969D00F
:101000002046FFF7DFFF20686FF0120101607107D3
:1010100014D515F0800111D0216CC90603D4216CC0
:1010200041F400512164816811F4401F22D0204610
:10103000FFF726FF20686FF00C010160F10706D072
:1010400015F040011CBF01685FEAC17134D1B106DF
:101050000FD515F0806108BF70BD616C6FF0200581
:1010600041F00201616405602046FFF7AFFF206890
:10107000056070BD816B11F4401F02D08168490585
:10108000D5D441684905D2D4816811F0405FCED1F2
:10109000217E0029CBD1416821F080014160206C84
:1010A00020F480502064206CC005C0D4206C40F037
:1010B00001002064BBE700BF206C40F48030206456
:1010C000204600F0D1F820686FF001010160B10600
:1010D000BFD4CEE7C16A11F4700F03D0816849050F
:1010E0003FF58EAF416821F020014160206C20F473
:1010F00080702064206CC0043FF582AF206C40F00B
:10110000010020647CE70000002804BF0120704734
:1011100010B50446006C00283ED0206CC00645D4B3
:10112000206C41F202118843023042F20431206403
:10113000C4F20101086820F4403008600A6894E8AD
:1011400009101A43D4F810E00A604168012321F421
:10115000807141604168C0F6007341EA0E21416030
:10116000416821F040714160416841EA0C014160F1
:10117000816821F400618160E168826811438160C7
:10118000A16A8268994222F070628260826813D1FB
:1011900022F0405119E000BF204600F067F800201F
:1011A000606484F83C00206CC006B9D501200021A1
:1011B00084F83C1010BD00BF11438160816821F0AC
:1011C00040518160E16A826811438160816821F049
:1011D000020181608168227E94F8203041EA420158
:1011E0008160416883B141F40061416041684EF221
:1011F000000221F460414160616ACFF6FF724368EA
:1012000002EB4131194301E021F400614160C16A00
:1012100040F2000C21F47001C162E2696169CFF60D
:10122000F07CC36A0CEB02521A43C262826822F459
:101230000072826094F83020836843EA4222826020
:10124000826822F480628260826842EA8121816041
:1012500000206064216C012262F3010121640021FD
:1012600084F83C1010BD00007047000070B586B0D7
:101270000446006842F20011C4F2010100268842CF
:10128000CDE90466CDE90266019641D042F2000143
:10129000C4F20101884240F08980002643F6300004
:1012A0000096C4F20200416941F4807141614169D4
:1012B00001F48071009100990096016841F00101EC
:1012C0000160006801A900F0010000900098022070
:1012D00001900320CDE902060020C4F2020000F0D4
:1012E0003FFB40F2803546F21040C2F20005C4F2E6
:1012F00002004FF48061C5E9000605F110004FF4CB
:1013000000624FF40053C5E902660EC03AE000BF28
:1013100043F630000096C4F20200416941F40071C6
:101320004161416901F400710091009900960168E2
:1013300041F001010160006801A900F00100009086
:101340000098042001900320CDE902060020C4F299
:10135000020000F005FB46F21040C4F2020040F229
:10136000E0353030C2F200054FF480624FF4006384
:101370004FF4005C4FF0007185E84300C5E903625B
:10138000C5E9053C2846EE612E626E6200F0D2F996
:10139000002818BFFFF748FD122000210022A56396
:1013A000AC6300F071FC122000F05EFC06B070BD72
:1013B000B0B582B004460020019094F83C000128AA
:1013C00002D1022002B0B0BD94460A460120216835
:1013D00084F83C008868C00729D188684DF6836589
:1013E00040F00100886040F21800C2F2000000687E
:1013F000C4F21B35A0FB0505A80C00EB40000190D2
:101400000198A0B1019801380190019878B1019834
:1014100001380190019850B101980138019001986C
:1014200028B101980138019001980028EAD1886814
:10143000C00503D5886820F4807088608D68206CB2
:10144000ED0709D140F010002064606C40F001000D
:101450006064002002B0B0BD40F20175A84300F501
:10146000807020644868400504D5206C012565F330
:101470000D302064256C0020ED044FF0000544BFC2
:10148000656C25F00605656484F83C00A06B40F6A9
:10149000914540F61553C0F60005C0F60003C0E9BB
:1014A0000F5340F60153C0F60003C3646FF02203EC
:1014B0000B604B6842F2080543F080634B608B6819
:1014C000C4F2010543F480738B604C31634600F035
:1014D000E3F9D5F8FC122068C9060FD0A5F1080180
:1014E0008842B6D1286810F0405FB2D1286840F039
:1014F00080402860002002B0B0BD00BF42F2000171
:10150000C4F20101884217D042F20021C4F2010165
:1015100088420DD042F20011C4F20101884298D1F4
:10152000D5F8FC12C90607D005F5FC71884290D1A8
:10153000D5F8FC12C9068CD4816811F0405F7FF4A5
:1015400088AF816841F080418160002002B0B0BD69
:1015500090F83510022909D1052180F8351000686E
:10156000016821F001010160002070478021416580
:1015700001207047F0B581B004460020009040F291
:101580001800C2F200000268D4E9166048F2B513F0
:1015900037680821C1F64E3381403942A2FB03254A
:1015A0000CD0226813685B0708D5136823F0040386
:1015B0001360B160616D41F00101616501218140FD
:1015C000394208D022685269120604D5B160616DB3
:1015D00041F00201616504218140394208D022684E
:1015E0001268920704D5B160616D41F00401616534
:1015F00010218140394217D020680268120713D5A4
:10160000B16002680168520308D4C90508D40168B2
:1016100021F008010160216C21B905E008033FD4E5
:10162000216C09B120468847E16D202000FA01F2C3
:101630003A4241D020680368DB063DD5B26094F899
:1016400035300268052B1BD122F016020260426978
:1016500022F080024261226C0AB9A26C1AB10268BF
:1016600022F0080202603F208840B060012084F828
:101670003500216D0020002984F8340052D157E054
:101680000168520310D4C90512D4016821F0100179
:101690000160012084F83500002084F8340007E060
:1016A000A16C0029BED1BFE7080301D4616C00E042
:1016B000E16B09B120468847606DC8B3606DC00713
:1016C0002ED0052084F835002068A90A026822F08F
:1016D00001020260009A01328A4200921AD802681E
:1016E000D20717D0009A01328A42009212D80268BB
:1016F000D2070FD0009A01328A4200920AD80268BB
:10170000D20707D0009A01328A42009202D80268BA
:10171000D207DFD1012084F83500002084F834009E
:10172000E16C29B1204601B0BDE8F040084700BF98
:1017300001B0F0BD2DE9F041044600F0EFF9002CB6
:101740004ED00546022084F835000020216884F838
:101750003400086820F0010008600868C00708D05D
:1017600000F0DCF9401B05286CD821680868C00728
:10177000F6D1086848F23F02CFF21002D4E90135F1
:10178000024004F10C0E9EE8C1511A432A43104353
:101790003043384340EA0800626A40EA0C00042AF9
:1017A00040EA0E0320D1D4E90A5E206B4EEA030220
:1017B000104308604869BEF1000F20F0030040EAC2
:1017C000050040F0040C15D0B8F5005F42D0B8F128
:1017D000000F51D1022D52D0012D47D055B94EE006
:1017E0000120BDE8F08100BF0B60486920F00700D0
:1017F00040EA020C6FF00F004AF6AB2250FA81F07B
:10180000CAF6AA22A0FB02231A0948F6BC03C0F6B6
:1018100000039A5C40F2FF335F284FF03F00C1F8AD
:1018200014C021EA030100FA02F088BF0431C4E9C0
:1018300016128860002301220020636584F8352099
:10184000BDE8F081032220230320636584F835205E
:10185000BDE8F081032DCDD8012240230120DFE82F
:1018600005F0030E030500BFE7E700BFAEF1C0704F
:10187000B0FA80F0400904E0032D04D3BAD1CEF3CE
:1018800000600028B6D0012240230120636584F85F
:101890003520BDE8F081000070B590F834C0BCF18F
:1018A000010F46D04FF0010C80F834C0D0F858E05A
:1018B00090F835C0BCF1010F38D14FF0020C80F820
:1018C00035C04FF0000CC0F854C0D0F800C0846898
:1018D000056CC06DDCF80060402C26F48026CCF846
:1018E0000060CCF804300B4604BF13460A463F2183
:1018F00001FA00F0CCF80830CCF80C20CEF8080043
:10190000DCF8000040F01600CCF800002DB1DCF847
:10191000000040F00800CCF80000DCF8000040F0C7
:101920000100CCF80000002070BD00BF002180F84D
:101930003410022070BD0000B0B5044600F0EEF88F
:10194000054640F20C00C2F200000078611C18BF8E
:10195000044400BF00F0E2F8401BA042FAD3B0BD3F
:101960002DE9F04F82B000F13E4241F6004502F110
:10197000FF77C4F2020508224FEAB726A84208BF43
:101980000722072E38BF4FEAB7224FF0010A002482
:1019900000274FF00008009208E000BF023708F16E
:1019A0000108202F04F1040400F0B4800E680AFA44
:1019B00008F916EA090FF1D0D1F804A00AF0030BD8
:1019C000ABF10106012E17D80322866802FA07FE42
:1019D000CA6826EA0E06BA40324382604268CAF3F9
:1019E000001522EA090205FA08F54FEA480C6FEAE9
:1019F0000E062A4342600BE00322BA40D643BBF1F5
:101A0000030FBC4604D1BC464FF0030B22E000BFDD
:101A1000C2688D68324005FA0CF52A43BBF1020F0B
:101A2000C26017D16FF0030202EA5802024404F0C8
:101A30001C030F25D2F820E005FA03FA0D692EEAFF
:101A40000A0E05FA03F343EA0E031362D1F804A069
:101A50000AF0030B02680BFA0CF332401A431AF433
:101A6000403F4FF0010A026098D0002243F6440341
:101A70000192C4F202031A6843F6004E42F4804217
:101A80001A601A68C4F2010E02F480420192019AAF
:101A900028F003024FF6084C7244CFF6FF7C52F850
:101AA0000C3004F00C060F25B540AB43009D05FA41
:101AB00006F6334342F80C30DEF808204B6842EA61
:101AC000090643F60C4CDD0258BF22EA0906CEF89F
:101AD0000860C4F2010CDCF800209D0242EA09060D
:101AE00058BF22EA0906CCF80060DEF804209D0306
:101AF00042EA090658BF22EA0906CEF80460DEF879
:101B00000020DB0342EA090658BF22EA0906CEF8A4
:101B1000006043E702B0BDE8F08F000040F254508F
:101B2000C2F200000068704740F20C0040F25451CD
:101B3000C2F20000C2F2000100780A681044086096
:101B40007047000080B543F60040C4F2020001680F
:101B500041F400710160016841F480610160016835
:101B600041F480710160032000F0BAF80F2000F00A
:101B700005F800F05DF8002080BD0000B0B586B02B
:101B8000002543F644010195C4F202010A680446A7
:101B900042F001020A60096801A801F00101019107
:101BA0000199694600F066F900F098F94DF68361F5
:101BB0004000C4F21B31A0FB01014FF0FF3000EBED
:101BC000914140F2C4400022C2F20000C4F201027E
:101BD00040F2E733C0E90021C0E9025305618561A5
:101BE00001F000FA054618B1284606B0B0BD00BFA6
:101BF00040F2C440C2F2000001F090FA054600280D
:101C0000F2D1192000F030F80F2C0DD81920214600
:101C10000022002500F038F840F21000C2F2000067
:101C20000460284606B0B0BD0125284606B0B0BD08
:101C300082B0002043F640010190C4F202014A68DC
:101C400042F480424A604A6802F480420192019A5A
:101C50000090086840F080500860086800F08050EC
:101C60000090009802B07047002848BF704700F00D
:101C70001F01012202FA01F14EF200124009CEF2D8
:101C8000000242F82010704710B54EF60C5CCEF200
:101C9000000CDCF80030C3F3022E8EF00704042C95
:101CA00028BF0424BEF103034FF0FF3E0EFA04F4F4
:101CB00038BF0023A14399400EFA03F39A4311431E
:101CC00000F00F02043A624409010C3200F1604353
:101CD000B0F1FF3FC8BF03F56442117010BD0000B2
:101CE0004EF60C51CEF200010A684FF6FF031A407F
:101CF00060F30A2242F0806040F0FD700860704797
:101D000002F04CFC704700002DE9F041002800F083
:101D10008B8043F60808C4F202080446D8F8F8039A
:101D20000D4600F00700884207D288F8F853D8F82B
:101D3000F80300F00700A84276D12068810717D584
:101D4000410705D5D8F8001041F4E051C8F800105B
:101D5000010705D5D8F8001041F46041C8F800101B
:101D6000D8F80010A26821F0F0011143C8F8001063
:101D7000C0073FD1D8F8F80300F00700A84207D900
:101D800088F8F853D8F8F80300F00700A8424BD1C0
:101D90002068410707D5D8F80010E26821F4E05127
:101DA0001143C8F80010000708D5D8F800002169D1
:101DB00020F4604040EAC100C8F8000000F0A2F83A
:101DC000D8F8001048F21072C1F30311C0F60002F7
:101DD000515C40F2180220FA01F140F21000C2F208
:101DE00000000068C2F200021160FFF7C7FE002089
:101DF000BDE8F0816068811E022907D258F8081CEE
:101E000089015CBF0120BDE8F08111E0012807D104
:101E100058F8081C89035CBF0120BDE8F08107E089
:101E200058F8081C890703D40120BDE8F08100BFE1
:101E3000D8F8001021F003010843C8F80000FFF7AC
:101E40006DFE064641F28837D8F80000616800F060
:101E50000C00B0EB810F8DD0FFF760FE801BB84205
:101E6000F2D90320BDE8F0814C20C4F247200121C3
:101E7000016070470F22026043F60802C4F20202BA
:101E8000136803F003034360136803F0F0038360F7
:101E9000136803F4E053C360D2F800C04FF4E0537A
:101EA00003EADC030361D2F8F80300F007000860DE
:101EB0007047000040F2180043F60801C2F200002B
:101EC000C4F202010068096848F22072C1F382215D
:101ED000C0F60002515CC8407047000040F2180094
:101EE00043F60801C2F20000C4F20201006809686A
:101EF00048F22072C1F34231C0F60002515CC84082
:101F00007047000010B543F60404C4F20204606890
:101F100000F00C0142F200400829C0F2F40007D0A2
:101F2000042918BF10BD41F20020C0F27A0010BD94
:101F3000216801F03F02216823684902C3F3881138
:101F400006D4A1FB00010023FEF73AF907E000BF29
:101F500041F20020C0F27A004843B0FBF2F0216861
:101F60000222C1F3014102EB4101B0FBF1F010BDCF
:101F700010B543F60C04C4F202042068000658BFF2
:101F800010BDFFF7BFFE8020A07010BD2DE9F0410D
:101F900082B000286AD00446007843F60006C007E5
:101FA000C4F202060BD0B06800F00C00042840F028
:101FB000A1803068800302D56068002856D0207860
:101FC00080071AD5B06810F00C0F09D0B06800F087
:101FD0000C00082840F0A8807068400200F1A4803E
:101FE0003068800702D5E06801283FD13068216958
:101FF00020F0F80040EAC10030602078000739D4B2
:10200000207840074ED4A5695DB3B06800F00C009D
:10201000082840F0BD80012D28D07068E16900F4E7
:1020200080028A4222D1216A00F03F028A421DD1F9
:1020300047F6C071626A0140B1EB821F16D1A26AF5
:102040000023CFF6FF7303EBC23200F440316FF38D
:102050000F0291420AD1E16A00F07060B0EB016FAB
:1020600004D1002002B0BDE8F08100BF012002B021
:10207000BDE8F0816069002840F20000C4F247200A
:1020800076D00121C0F8801EFFF748FD054600BF4D
:10209000706F8007B4D4FFF741FD401B0228F7D9C9
:1020A000DDE000BF306C10F080580AD100200190B4
:1020B000306C40F080503064306C00F08050019003
:1020C000019847F20007C4F200073868C00541D400
:1020D000386840F480703860FFF720FD054600BF87
:1020E0003868C00536D4FFF719FD401B0228F7D920
:1020F000B5E000BFB06800F00C00082803D170689C
:1021000040023FF556AF6068B0F5803F07D0B0F5AC
:10211000A02F40F08D80306840F48020306030681F
:1021200040F4803030608DE0E068002852D000201C
:10213000C4F2472001210160FFF7F0FC054600BF13
:10214000306880073FF552AFFFF7E8FC401B0228DC
:10215000F6D984E0A068012805D005284ED1306F5B
:1021600040F004003067306F40F0010030674FE00E
:102170000021C0F8801EFFF7D1FC0546706F800774
:102180007FF53EAFFFF7CAFC401B0228F6D966E098
:102190000027C4F2472700203866FFF7BFFC022D56
:1021A00005460BD1306880015ED5FFF7B7FC401BB8
:1021B00002284FF00300F5D954E700BF30688001D2
:1021C0007FF54FAFFFF7AAFC401B02284FF003003A
:1021D000F4D947E70020C4F2472000210160FFF74F
:1021E0009DFC0546306880077FF507AFFFF796FC3A
:1021F000401B02284FF00300F4D933E7316F002869
:1022000021F001013167316F21F0040131674DD0B8
:10221000FFF784FC054641F2883700BF306F800726
:1022200056D4FFF77BFC401BB842F7D917E000BF3C
:102230003168002821F480313160316821F4802137
:1022400031604FD0FFF76AFC054600BF306880035D
:102250003FF5B5AEFFF762FC401B6428F6D90320BA
:1022600002B0BDE8F08100BF04F11C052FCD08438A
:102270000021CFF6FF7140EA821001EBC3316FF30A
:102280000F0140EA05600843706001203866FFF7DF
:1022900045FC0446306880013FF5E3AEFFF73EFCA5
:1022A000001B02284FF00300F4D9DBE6FFF736FCF1
:1022B000054641F2883700BF306F800708D5FFF729
:1022C0002DFC401BB8424FF00300F5D9CAE600BF11
:1022D000B8F1000F7FF497AE306C20F0805030647E
:1022E00091E600BFFFF71AFC054600BF3068800387
:1022F0007FF565AEFFF712FC401B64284FF003002A
:10230000F4D9AFE6FEF71ABD7047000080B5D0E9FA
:10231000193ED0F844C09A0F0A70C3F383624A7022
:10232000C3F301628A701A0CCA701A0A0A714FEA62
:102330001E524B71CA80CEF303420A72CEF3C032F2
:102340004A72CEF380328A72CEF34032CA72CEF332
:1023500000320A730022BCF1010F4A7336D0BCF17F
:10236000000F40F0878040F6FC72C36E02EA8E02D6
:1023700042EA93720A61C26EC2F3C2630B75C2F382
:1023800002634B75C2F342538B75C2F38243CB7524
:10239000C2F3C2330B76D1F810C00B7E0CF1010CE6
:1023A00003F0070302330CFA03FCC0F854C00B7AA5
:1023B00003F00F0E012303FA0EF383655B0A03FBA0
:1023C0000CF3C3654FF4007312E000BFB0F86E2049
:1023D0000EF03F0342EA03420A610A694FF4806348
:1023E00003EB82224FF40073C0E91523C265C26E6D
:1023F0000366C2F380334B76C2F3C61302F07F024A
:102400008B76CA76006FC20F0A77C0F341724A77A3
:10241000C0F382628A77C0F38352CA77C0F3405216
:1024200081F820200022C0F3004381F8212081F8A8
:102430002230C0F3C03381F82330C0F3803381F8F9
:102440002430C0F3403381F82530C0F3003381F8E5
:102450002630C0F3812381F82730C0F30123C0B2B6
:10246000400881F8283081F82900012081F82A00ED
:10247000104680BD016840F2FF52C0F240028A63FC
:10248000816B012241F08051816380F83420104635
:1024900080BD000080B500F1440E9EE80C5081E83C
:1024A0000C10426DC1E903E2D0E91623C1E905230E
:1024B000026E0020CA6180BD10B5016D044600683F
:1024C000090401F0ABFC28B1A16B0843A063002014
:1024D00010BD00BF2068002101F0CCFAC0F34320FA
:1024E00010BD0000F0B581B004460068256B416B5B
:1024F00005F0080609042BD556B3E56A2DB3A66A84
:1025000001F0DEFA3060206801F0DAFA70602068CD
:1025100001F0D6FAB060206801F0D2FAF0602068CD
:1025200001F0CEFA3061206801F0CAFA70612068CB
:1025300001F0C6FAB061206801F0C2FAF06106F15C
:102540002000A5F12001C4E90A0101B0F0BD00BFDF
:10255000416BC90540D4416B490465D5002E63D059
:10256000666A002EF1D0276A6D46396800912946C7
:1025700001F0AAFA796820680091294601F0A4FACE
:10258000B96820680091294601F09EFAF968206830
:102590000091294601F098FA39692068009129468E
:1025A00001F092FA796920680091294601F08CFACD
:1025B000B96920680091294601F086FAF869294630
:1025C00000902068203701F07FFAA6F12000C4E9CE
:1025D000087001B0F0BD00BF4FF480718163C16B22
:1025E0004CF23A329143C163C16A002E21F00101DD
:1025F000C16259D12906A8D5A90608D501F080FCE9
:1026000028B1A16B0843A0632046FFF77DFEA80711
:102610009BD12068C16A21F00801C16201212046D6
:1026200084F834105EE000BF416B40F23A22114260
:102630003FF48BAF416B89075AD4416B09075ED4D5
:10264000416B890662D4416BC90666D4416B89052A
:1026500003D5A16B41F00801A16340F23A71816397
:10266000C16B40F23A329143C16301F049FCA16B66
:10267000002E40EA0100A06358D128067FF565AF1F
:1026800015F0300F5ED0E06B44F22511C0F600016A
:102690000165FEF75DFF00283FF457AFE06B01B026
:1026A000BDE8F04001F03EBD15F0220F08D001F06A
:1026B00027FC28B1A16B0843A0632046FFF724FE46
:1026C000206840F23A518163012084F834000020F0
:1026D000A9072063204605D001B0BDE8F04000F016
:1026E00003BB00BF01B0BDE8F04000F0FFBA00BF7F
:1026F000A16B41F00201A163416B0907A0D5A16B59
:1027000041F00801A163416B89069CD5A16B41F0A2
:102710002001A163416BC90698D5A16B41F010015E
:10272000A163416B890594D497E700BF0120002184
:1027300084F834002046216301B0BDE8F040FFF783
:10274000E3BD00BFA80711D0206C44F2B901C0F668
:1027500000010165FEF7FCFE00283FF4F6AE206C98
:1027600001B0BDE8F04001F0A7BC00BF002101208E
:10277000A16384F834002046216301B0BDE8F04035
:10278000FFF7C0BD10B5D8B1044690F8340020B9A9
:1027900000202077204600F02BF9032084F8340035
:1027A000204600F00FF800284FF0010018BF10BDC0
:1027B0000021A163216384F83400002010BD00BF14
:1027C000012010BDF0B58FB00446006876210026C8
:1027D00002910021002200230096019601F054F995
:1027E0004FF0010510B128460FB0F0BD48F2A00728
:1027F000C4F225273E60206801F05CF902203D60AC
:10280000FFF79AF80496206801F0C4F940B1012559
:1028100084F83450A16B0843A06328460FB0F0BD84
:10282000206801F0E7F968B120680021A16401F097
:10283000B1F90028EBD1A06C04F14406012805D0C1
:102840000CE000BF0120A06404F1440620680021D0
:1028500001F040F910B14FF08050D8E704984FF6DE
:10286000FE77B84224D80025CCF21015206800214C
:1028700001F030F90028CAD12068294601F036F964
:102880000028E8D12068002101F0F4F80499013112
:1028900004910499B94202D8B0F1FF3FE6DC0499F3
:1028A0004FF6FE72914206D8400007D5012006E09F
:1028B0000498B84202D94FF08070A8E70020306039
:1028C00020680125ADF80E5001F0D0F890B1606C91
:1028D000032813D12068042101F0CCF8000DE06436
:1028E00004A92046FFF712FD002855D04FF0805074
:1028F0008EE700BF4FF080608AE700BF206801F0DC
:10290000F1F900287FF484AF2068002101F0B2F8CB
:10291000216860670846042101F0ACF82168A067CF
:102920000846082101F0A6F82168E06708460C2156
:1029300001F0A0F8616CC4F880000329CAD02068B7
:102940000DF10E0101F076FA00287FF461AF606CA2
:102950000328BFD0BDF80E1020682165090401F0DE
:102960000FFA00287FF454AF2068002101F082F8AC
:10297000216860660846042101F07CF82168A066A1
:102980000846082101F076F82168E06608460C2127
:1029900001F070F820679DE7216D20680A0400238C
:1029A00001F094F900287FF433AF94E88F00D4E964
:1029B0000565CDE90076029501F066F820684FF4D0
:1029C000007101F0DBF878B1216840F2FF52C0F2EB
:1029D00040028A63A16B01250843A06384F8345048
:1029E00028460FB0F0BD00BF002528460FB0F0BD4F
:1029F0002DE9F04385B0006842F60045C4F20105B8
:102A0000A84203D005B0BDE8F08300BF002643F61E
:102A100030000096C4F2020041696C4641F4006146
:102A2000416141694FF0020801F400610091009991
:102A3000009601684FF0030941F00401016001684C
:102A40000C2701F00401009100990096016841F003
:102A5000080101600068214600F00800009000981D
:102A60004FF48850009005F55C40CDE90186CDF823
:102A70000C900497FEF774FF0420CDE9000805F5DB
:102A800060402146CDE902690497FEF769FF3120D5
:102A900000210022FFF7F8F83120FFF7E5F805B034
:102AA000BDE8F0832DE9F04786B01F4616460D4677
:102AB0000446FFF733F89DB1804694F834000128AE
:102AC00016D10021A163E06DBA19824218D9A06B1A
:102AD00040F00070A063012006B0BDE8F08700BFA1
:102AE000A06B40F00060A063012006B0BDE8F08755
:102AF000A06B40F00050A063012006B0BDE8F08755
:102B0000032084F83400626C2068012A4FF0FF3201
:102B1000C16218BF760200927A024FF00209019258
:102B20009022CDE903914FF0010A69460292CDF857
:102B300014A000F087FF022F18D3C4F8309020684B
:102B4000314601F0ABF8C8B1216840F2FF52C0F243
:102B500040028A63A16B0843A0630120002184F82E
:102B60003400216306B0BDE8F08700BFC4F830A090
:102B70002068314601F09EF80028E5D1DDF8389054
:102B8000019E40F22A3A05E0FEF7C8FFA0EB0800DC
:102B9000484541D22068426B416B12EA0A0F25D1A9
:102BA0000904F1D5002EEFD000F08AFF28602068DC
:102BB00000F086FF6860206800F082FFA86020684F
:102BC00000F07EFFE860206800F07AFF286120684E
:102BD00000F076FF6861206800F072FFA86120684D
:102BE00000F06EFFE8612035203ECDE7022F27D3AD
:102BF00011F4807124D0616C032921D001F080F997
:102C000001462068E1B140F2FF52C0F24002826307
:102C1000A06B0843A0E700BF206840F2FF51C0F25C
:102C200040018163A06B40F00040A063012084F864
:102C3000340000202063032006B0BDE8F08700BF09
:102C4000416B090728D4416B89072FD4416B890652
:102C500036D4416B890214D59EB1043E00F030FF9A
:102C60002860FEF75BFFA0EB0800484532D22068E1
:102C7000416B890205D5002EA6F1040605F1040575
:102C8000ECD140F23A518163012084F834000020F5
:102C900006B0BDE8F08700BF40F2FF51C0F240012E
:102CA0008163A06B40F0080056E700BF40F2FF517F
:102CB000C0F240018163A06B40F002004CE700BF0E
:102CC00040F2FF51C0F240018163A06B40F0200050
:102CD00042E700BF206840F2FF51C0F2400181632B
:102CE000A06B40F0004037E7FEF76AB8FEF77EB809
:102CF0002DE9F04F87B0984615460E460446FEF77C
:102D00000DFF9EB1824694F83400012816D10021AF
:102D1000A163E06D08EB0502824217D9A06B40F079
:102D20000070A063012007B0BDE8F08FA06B40F0F9
:102D30000060A063012007B0BDE8F08FA06B40F0F9
:102D40000050A063012007B0BDE8F08F032084F895
:102D50003400626C2068012A4FF0FF32C16218BF54
:102D60006D0201924FEA482202929022CDE903219E
:102D700005910121069101A900F064FEB8F1020F4E
:102D800018D3202020632068294601F0C9F8C8B173
:102D9000216840F2FF52C0F240028A63A16B0843EF
:102DA000A0630120002184F83400216307B0BDE84E
:102DB000F08F00BF102020632068294601F0BCF886
:102DC0000028E5D1DDF84090029F40F21A3B6D46A5
:102DD00006E000BFFEF7A2FEA0EB0A0048455DD268
:102DE0002068426B416B12EA0B0F41D14904F1D5C7
:102DF000002FEFD031780091727841EA02210091E2
:102E0000B27841EA02410091F27841EA0261009110
:102E1000294600F059FE716820680091294600F0AB
:102E200053FEB16820680091294600F04DFEF1681C
:102E300020680091294600F047FE31692068009122
:102E4000294600F041FE716920680091294600F092
:102E50003BFEB16920680091294600F035FEF0691B
:102E6000294600902068203600F02EFE203FB1E772
:102E7000B8F1020F24D311F4807121D0616C0329C1
:102E80001ED001F03DF801462068C9B140F2FF5262
:102E9000C0F240028263A06B084381E7206840F2E1
:102EA000FF51C0F240018163A06BA063012084F850
:102EB000340000202063032007B0BDE8F08F00BF7E
:102EC000416B090710D4416B890717D4416BC906C0
:102ED0001ED440F23A518163012084F8340000206E
:102EE00007B0BDE8F08F00BF40F2FF51C0F24001D3
:102EF0008163A06B40F0080052E700BF40F2FF5131
:102F0000C0F240018163A06B40F0020048E700BFBF
:102F100040F2FF51C0F240018163A06B40F010000D
:102F20003EE70000704700007047000010B590F8C1
:102F30003C20012A4FF0020251D080F83D20026867
:102F4000D2F804E0D2F808C00C682EF070032343D6
:102F500041F2FF74C4F20004A24253600EDC40F25E
:102F6000FF73C4F200039A4216DCB2F1804F2BD0FB
:102F700040F20043C4F2000324E000BF40F2FF33FC
:102F8000C4F201039A4213DC41F60003C4F20003C9
:102F90009A4219D0002313E040F60003C4F2000364
:102FA0009A4211D040F60043C4F200030AE000BF89
:102FB00044F20003C4F201039A4205D040F20043F8
:102FC000C4F201039A4204D149682CF080031943EA
:102FD00091600121002280F83D1080F83C201046CD
:102FE00010BD0000002804BF0120704710B5044642
:102FF00090F83D0028B9002084F83C00204600F0FD
:103000001FF8022084F83D002068211D01F0B4F96A
:10301000012084F8460084F83E0084F83F0084F8DC
:10302000400084F8410084F8420084F8430084F8AA
:10303000440084F8450084F83D00002010BD0000E5
:1030400081B0006840F20041C4F20001884201D022
:1030500001B070470020009043F64000C4F2020027
:10306000016841F002010160006800F00200009078
:10307000009801B07047000090F83D1001291CBF76
:1030800001207047022180F83D10006841F2FF7175
:10309000C4F2000188420DDC40F2FF71C4F200016D
:1030A000884215DCB0F1804F2AD040F20041C4F2D2
:1030B000000123E040F2FF31C4F20101884213DC39
:1030C00041F60001C4F20001884219D0002113E04A
:1030D00040F60001C4F20001884211D040F60041E0
:1030E000C4F200010AE000BF44F20001C4F2010191
:1030F000884205D040F20041C4F20101884206D165
:10310000816801F00701062904BF002070470168AB
:1031100041F00101016000207047000090F83D106F
:1031200001291CBF01207047022180F83D10006872
:1031300041F2FF72C168C4F20002904241F0010105
:10314000C1600DDC40F2FF71C4F20001884215DC61
:10315000B0F1804F2AD040F20041C4F2000123E0D8
:1031600040F2FF31C4F20101884213DC41F6000154
:10317000C4F20001884219D0002113E040F600019A
:10318000C4F20001884211D040F60041C4F20001AF
:103190000AE000BF44F20001C4F20101884205D0F8
:1031A00040F20041C4F20101884206D1816801F079
:1031B0000701062904BF00207047016841F00101A2
:1031C000016000207047000080B590F83C20012A83
:1031D0004FF0020200F0C28080F83D20D0F800C01D
:1031E0004FF67772DCF8083023EA0202CCF80820A8
:1031F0000B684F2B28DC1F2B44DD202B45D0302BB8
:1032000043D0402B40F0AC80D1F804E0C968DCF832
:103210002030DCF8202022F00102CCF82020DCF85D
:10322000182022F0F00242EA011123F00A0242EAD9
:103230000E02CCF81810CCF82020DCF8081041F071
:10324000470121F0300180E06F2B27DDB3F5005FEF
:1032500048D0B3F5805F7AD0702B40F08180D1E9FF
:1032600001E3C968DCF8082043EA0E0322F47F4238
:1032700043EA01211143CCF80810DCF8081041F0B2
:10328000770162E00BB1102B6AD1DCF8081021F055
:103290007001194341F0070157E000BF502B35D0B2
:1032A000602B5DD1D1F804E0C968DCF8203023F050
:1032B0001003CCF82030DCF81830DCF8202023F4A0
:1032C000704322F0A00243EA013142EA0E12CCF828
:1032D0001810CCF82020DCF8081041F0670121F02C
:1032E000100132E0D1E901E3C968DCF8082043EAC3
:1032F0000E0322F47F4243EA01211143CCF8081067
:10330000DCF8081041F480411FE000BFD1F804E070
:10331000C968DCF82030DCF8202022F00102CCF86B
:103320002020DCF8182022F0F00242EA011123F0FC
:103330000A0242EA0E02CCF81810CCF82020DCF881
:10334000081041F0570121F02001CCF808100022AC
:10335000012180F83D10002180F83C10104680BD0E
:103360000122F5E77047000010B5016804460869BE
:10337000800744BFC8685FEA807039D40869400795
:1033800044BFC8685FEA40703ED40869000744BF84
:10339000C8685FEA007045D40869C00644BFC868C1
:1033A0005FEAC0604AD40869C0071CBFC8685FEA0A
:1033B000C07051D10869000644BFC8685FEA006068
:1033C00052D40869400644BFC8685FEA406053D4DD
:1033D0000869800646BFC8685FEA806010BD6FF06C
:1033E000200220460A61BDE81040FFF79DBD00BFE6
:1033F0006FF002000861012020778869800743D0C0
:103400002046FFF7AFFF45E06FF00400086102209F
:103410002077886910F4407F40D02046FFF7A2FF54
:1034200042E000BF6FF00800086104202077C869FF
:1034300080073DD02046FFF795FF3FE06FF010007A
:10344000086108202077C86910F4407F3AD02046F0
:10345000FFF788FF3CE000BF6FF0010008612046E5
:1034600000F03EF82168A5E76FF080000861204673
:10347000FFF758FD2168A4E76FF04000086120467F
:1034800000F038F82168A3E7204600F025F8204630
:1034900000F024F82168002020776FE7204600F034
:1034A0001BF8204600F01AF82168002020776CE70E
:1034B000204600F011F8204600F010F821680020A6
:1034C000207769E7204600F007F8204600F006F86C
:1034D00021680020207766E77047000070470000F1
:1034E00000680021C4F20101884208BFFEF71CBB3E
:1034F0007047000070470000002804BF012070479B
:1035000010B5044690F83D0028B9002084F83C002E
:10351000204600F021F8242084F83D002068C1688E
:1035200021F40051C160204600F0C4FF2068016909
:1035300021F490410161416921F02A014161C16892
:1035400041F40051C16000202021206484F83D1026
:1035500084F83E1010BD000080B586B0016841F2CD
:103560000000C4F20100814202D006B080BD00BF5D
:10357000002143F630020191C4F20202536900F5C2
:10358000704043F010035361536903F0100301933B
:10359000019B0191136843F001031360126802F06C
:1035A00001020192019A4FF4C06201920222CDE918
:1035B0000221032104910721059101A9FEF7D0F909
:1035C00006B080BD2DE9F04381B0044690F83E007E
:1035D00020280DD10E4600294FF0010000F0D680C2
:1035E0001746002A00F0D28094F83C00012803D14D
:1035F000022001B0BDE8F083012084F83C004FF0C8
:10360000000922201D46C4F8409084F83E00C4F80A
:103610003090FEF783FAA785E785A1680746B1F5E4
:10362000805F0BD1206900281CBF30464E46B04653
:10363000064684F83C90E08D40B9A3E04FF00008C6
:1036400084F83C90E08D002800F09C8005F1010991
:103650000DE000BF406800266FF35F2028F8020BE2
:10366000E08D0138E085E08D002800F08B80206837
:10367000016889060ED4B9F1000F19D055B300BF07
:10368000FEF74CFAC01BA84224D8206801688906BE
:10369000F6D500BF002EDDD0A168B1F5805F15D052
:1036A00009B9216991B1406800F07F000FE000BFC7
:1036B00001688906EED4016889065CBF01685FEA8B
:1036C0008161E7D401688906F2D5E3E7406806F82E
:1036D000010BC5E7206850E8030F216820F4D07083
:1036E00041E80302E2B1206850E8030F216820F4AA
:1036F000D07041E803029AB1206850E8030F2168B6
:1037000020F4D07041E8030252B1206850E8030F62
:10371000216820F4D07041E80302002ADAD100BF0A
:10372000206850E8050F216820F0010041E80502FB
:10373000DAB1206850E8050F216820F0010041E867
:10374000050292B1206850E8050F216820F00100C1
:1037500041E805024AB1206850E8050F216820F0D1
:10376000010041E80502002ADAD1202084F83D005A
:1037700084F83E00002084F83C00032001B0BDE83E
:10378000F08300BF202084F83E00002001B0BDE897
:10379000F08300002DE9F04381B0044690F83D002D
:1037A00020280DD10F4600294FF0010000F0DD80E8
:1037B0001646002A00F0D98094F83C00012803D175
:1037C000022001B0BDE8F083012084F83C004FF0F6
:1037D000000921201D46C4F8409084F83D00FEF702
:1037E0009DF9A684E684A1680646B1F5805F07D1FD
:1037F000206900281CBF38464F46B846074601E0FE
:103800004FF0000884F83C90E18C2068002900F01B
:103810008B8005F101090AE047B317F8011B4160ED
:10382000E18C0139E184E18C002900F07D800168A0
:103830000906F1D4B9F1000F0AD0EDB1FEF76EF927
:10384000801BA84218D8206801680906F6D5E3E76E
:1038500001680906E0D4016809065CBF01685FEAF7
:103860000161D9D401680906F2D5D5E738F8021B01
:1038700000276FF35F21D2E7206850E8030F21682B
:1038800020F4D07041E80302BAB3206850E8030F77
:10389000216820F4D07041E8030272B3206850E838
:1038A000030F216820F4D07041E803022AB3206896
:1038B00050E8030F216820F4D07041E80302002A89
:1038C000DAD11AE0206850E8050F216820F00100E5
:1038D00041E80502DAB1206850E8050F216820F0C0
:1038E000010041E8050292B1206850E8050F216807
:1038F00020F0010041E805024AB1206850E8050FB8
:10390000216820F0010041E80502002ADAD12020D8
:1039100084F83D0084F83E00002084F83C00032039
:1039200001B0BDE8F08300BF0168490619D4FDB1BC
:10393000691C0DD10168490613D4016849065CBFB2
:1039400001685FEA41610CD401684906F2D508E0DC
:10395000FEF7E4F8801BA8420AD8206800684006F9
:10396000F6D5202084F83D00002001B0BDE8F083AA
:10397000206850E8030F216820F4D07041E803026A
:10398000E2B3206850E8030F216820F4D07041E8CA
:1039900003029AB3206850E8030F216820F4D07026
:1039A00041E8030252B3206850E8030F216820F475
:1039B000D07041E80302002ADAD11FE0206850E805
:1039C000050F216820F0010041E80502002A9ED081
:1039D000206850E8050F216820F0010041E8050249
:1039E000002A3FF494AF206850E8050F216820F0CA
:1039F000010041E80502002A3FF489AF206850E841
:103A0000050F216820F0010041E80502002AD5D108
:103A10007DE70000FEE7000010B540F28004C2F22E
:103A2000000448F2A870611CC0F60000FDF702FA1D
:103A3000207010BDFEE70000FEF79AFAFEE70000D6
:103A40007047000080B5024691E8095050629362C9
:103A500008694EEA0C0318434969D36A084323F006
:103A6000F70101430020D16280BD0000006800F032
:103A700003007047084440697047000040F240402E
:103A8000C2F20000FEF72EBD10B58446DDE902400B
:103A9000114319432143DDF810E00843DCF804101A
:103AA00047F6FF6240EA0E00914301430020CCF844
:103AB000041010BD0146032200200A607047000078
:103AC000D0F8800070470000096802460020C2F864
:103AD000801070478160C36840F2774161F30B0347
:103AE000372141F28832C36000F032BA41F0004120
:103AF00041F480118160C16840F2694262F30B01B8
:103B0000C16040F21801C2F20001096844F6D352C4
:103B1000C1F26202A1FB0212510A6FF0030241F2EC
:103B2000883301FB132100BF043104BF4FF0004074
:103B30007047426B12F0450F02D012F4006214D0AD
:103B4000426B12F0450F02D012F400620DD0426BAE
:103B500012F0450F02D012F4006206D0426B12F050
:103B6000450FE1D012F40062DED1416B042211F066
:103B7000040108BFC5228263084670478160C3689C
:103B80004FF48A6161F30B03102141F28832C36064
:103B900000F0DEB900218160C1684FF4806262F3F9
:103BA0000B01C16040F21801C2F20001096844F63D
:103BB000D352C1F26202A1FB0212510A6FF003025A
:103BC00041F2883301FB1321043104BF4FF0004060
:103BD0007047426B120609D4426B12065CBF426BFF
:103BE0005FEA026202D4426B1206EDD5C521816301
:103BF000002070474FF4D5718160C1684FF489622D
:103C000062F30B01C16040F21801C2F200010968C1
:103C100044F6D352C1F26202A1FB0212510A6FF0C4
:103C2000030241F2883301FB132100BF043104BFBA
:103C30004FF000407047426B12F0450F02D012F473
:103C4000006214D0426B12F0450F02D012F40062F1
:103C50000DD0426B12F0450F02D012F4006206D074
:103C6000426B12F0450FE1D012F40062DED1416BDD
:103C7000490709D4416BC9070AD1416B49064FF086
:103C8000000108D5402205E00422042102E000BF23
:103C90000122012182630846704700008160C368E9
:103CA00040F2524161F30B03122141F28832C360AA
:103CB00000F04EB98160C36840F2514161F30B03DB
:103CC000112141F28832C36000F042B98260C368BA
:103CD00040F2474161F30B03072141F28832C36090
:103CE00000F036B900218160C16840F2C24262F33F
:103CF0000B01C16040F21801C2F20001096844F6EC
:103D0000D352C1F26202A1FB0212510A6FF0030208
:103D100041F2883301FB1321043104BF4FF000400E
:103D20007047426B12F0450F02D012F4006214D0BB
:103D3000426B12F0450F02D012F400620DD0426BBC
:103D400012F0450F02D012F4006206D0426B12F05E
:103D5000450FE1D012F40062DED1416B490707D470
:103D6000416BC90708D1C52181630020704700BF9E
:103D7000042181630846704701218163084670472A
:103D80008160C16840F2C94262F30B01C16040F238
:103D90001801C2F20001096844F6D352C1F262026E
:103DA000A1FB0212510A6FF0030241F2883301FBBA
:103DB000132100BF043104BF4FF000407047426B35
:103DC00012F0450F02D012F4006214D0426B12F0D0
:103DD000450F02D012F400620DD0426B12F0450F75
:103DE00002D012F4006206D0426B12F0450FE1D00F
:103DF00012F40062DED1416B490707D4416BC90759
:103E000008D1C52181630020704700BF0421816370
:103E10000846704701218163084670478160C36886
:103E200040F24D4161F30B030D2141F28832C36032
:103E300000F08EB800228260C26840F2434363F310
:103E40000B02C26040F21802C2F20002126844F68D
:103E5000D353C1F26203A2FB03235A0A6FF0030C8F
:103E600041F2883302FB13C2043204BF4FF000401A
:103E70007047436B13F0450F02D013F4006314D066
:103E8000436B13F0450F02D013F400630DD0436B66
:103E900013F0450F02D013F4006306D0436B13F008
:103EA000450FE1D013F40063DED1426B52071BD4FF
:103EB000426BD2071CD10269D2B2032A1CBF012077
:103EC0007047C5228263406910F4604F14D04104EA
:103ED00044BF4FF40050704700044FF4805158BF66
:103EE0004FF48031084670470421816308467047CB
:103EF0000121816308467047000C0880002070474C
:103F000000218160C36840F24C414EF2001261F31F
:103F10000B03C0F2F5520C21C36000F019B8000089
:103F20008160C36840F2594161F30B03192141F2EA
:103F30008832C36000F00CB88160C3684FF48B61B5
:103F400061F30B03182141F28832C360AFF30080A4
:103F500040F21803C2F20003D3F800C044F6D35372
:103F6000C1F26203ACFB033C03464FEA5C205043C2
:103F7000002800F09D805A6B12F0450F02D012F419
:103F800000621DD0012800F093805A6B12F0450F9B
:103F900002D012F4006213D0022800F089805A6B1C
:103FA00012F0450F02D012F4006209D00438421C0E
:103FB0007ED05A6B12F0450FDAD012F40062D7D1DE
:103FC000586B400742BF042098637047586BC00786
:103FD0001EBF012098637047C52098631869C0B25E
:103FE00088421CBF0120704758694EF20801CFF685
:103FF000FF51084204BF00207047002844BF4FF023
:1040000000707047410044BF40207047810044BFAA
:1040100080207047C10044BF4FF480707047010199
:1040200044BF4FF400707047410144BF4FF48060BB
:104030007047C10144BF4FF400607047010244BFA4
:104040004FF480507047410244BF4FF40050704716
:10405000810244BF4FF480407047C10244BF4FF417
:1040600000407047410344BF4FF400307047810364
:1040700044BF4FF480207047C10344BF4FF4002079
:104080007047010444BF4FF480107047410444BF9F
:104090004FF400107047810444BF4FF48000704714
:1040A00000074FF4000058BF4FF48030704700BF46
:1040B0004FF0004070470000B0B5846B40F23A52B8
:1040C000216D206809048263FFF7A8FE40B1A16B4F
:1040D0000843A063012084F834000020206313E02B
:1040E000206800210025FFF7C5FCC0F343200538F8
:1040F0000121012884F83410256305D82068FFF7D2
:10410000FFFEA16B0843A063A06B28B12046BDE869
:10411000B040FEF7F9B800BF2046BDE8B040FEF75A
:10412000F1B80000B0B5846B40F23A52216D2068BE
:1041300009048263FFF772FE40B1A16B0843A063DC
:10414000012084F834000020206313E0206800215F
:104150000025FFF78FFCC0F343200538012101281B
:1041600084F83410256305D82068FFF7C9FEA16BD9
:104170000843A063A06B28B12046BDE8B040FEF71D
:10418000C3B800BF2046BDE8B040FEF7BBB8000092
:10419000B0B540F21404C2F2000401252570FCF70A
:1041A000E3FD08B12078B0BD2570FCF7D1FD18B152
:1041B000207820702078B0BD207800F0FE002070BC
:1041C000207820702078B0BD10B588B040F214007F
:1041D000C2F200000078C0070ED1032910D814469F
:1041E0000020DFE801F00E03111900BF6846FCF75C
:1041F000A7FD069815E000BF032008B010BD00BF62
:10420000042008B010BD00BF6846FCF799FD079870
:104210002080002008B010BD6846FCF791FD07988B
:10422000400A2060002008B010BD000080B508469C
:1042300011461A464FF0FF33FCF7AEFD00281CBFB5
:10424000012080BDFCF784FD0028FBD1002080BD4B
:1042500010B540F21404C2F2000401202070FCF7F3
:1042600077FD08B1207810BD207800F0FE002070A6
:10427000207810BD80B5084611461A464FF0FF332E
:10428000FCF7A0FD00281CBF012080BDFCF760FDED
:104290000028FBD1002080BD70470000704700005F
:1042A000B0B592B0002443F64000CDE90A44CDE910
:1042B00008440594CDE90344CDE901440094C4F2D7
:1042C00002000168022541F080510160006800F0A1
:1042D00080500090009847F200000094C4F2000063
:1042E000016841F480410160006800F48040009062
:1042F0000098012006904FF4803007904FF4800022
:104300000D9008200E904FF4A870CDE90F050720FE
:10431000119006A80C95FDF739FE28B1EFF3108037
:1043200072B600BFFEE700BF0F20CDE901054FF4D4
:10433000A05004904FF48050059001A805210394EB
:10434000FDF7E2FC20B1EFF3108072B6FEE700BF8C
:10435000FDF78AFD12B0B0BD4EF68850CEF20000D7
:10436000016841F4700101607047000040F2C440F0
:10437000C2F20000FEF7F8BF10B540F6FF3E03683A
:10438000C4F2000E40F2004C7045C4F2010C27DC70
:10439000B0F1804F31D040F20042C4F200029042AE
:1043A0002BD040F60002C4F20002904225D041F624
:1043B000FF72C4F20002904229DC70453CDCB0F18F
:1043C000804F5FD040F20042C4F20002904259D0C8
:1043D00040F60002C4F20002904253D056E000BF03
:1043E00040F60042C4F20002904206D0604504D07C
:1043F0000022C4F201029042D9D14A6823F070032E
:10440000134341F6FF72C4F200029042D5DD43F639
:10441000FF72C4F20102904222DC42F20002C4F2B6
:10442000000290422ED00022C4F20102904229D014
:10443000604527D02AE000BF40F60042C4F20002E7
:1044400090421FD041F60002C4F20002904219D0FF
:1044500041F60042C4F20002904213D016E000BFC1
:1044600044F20002C4F2010290420BD044F6000272
:10447000C4F20102904205D044F20042C4F20102AB
:10448000904203D1CA6823F44073134323F080029F
:104490004B69D1F800E08C681A430260C46240F4B2
:1044A0008062C0F828E0624504BF09690163012108
:1044B000416110BD10B504460068D4E902C2236909
:1044C000016921F4405111430161626943EA0C0121
:1044D000E3691143C268194349F20C639A431143DB
:1044E000C1604169A26921F4407141F20043114366
:1044F00040F48062C4F201039A42416102D1FDF7A7
:10450000EDFC01E0FDF7D6FCE16963681922B1F525
:10451000004FA0FB02011FD15A00DB0FFBF750FE3A
:1045200048F21F51C5F2EB11A0FB01235A096FF0AD
:10453000630302FB0300322303EBC000A0FB010175
:104540004FF4F87000EA111000EB0210C1F34211B1
:1045500008442168886010BD9A009B0FFBF730FE6D
:1045600048F21F51C5F2EB11A0FB01235A096FF06D
:10457000630302FB0300322303EB0010A0FB0101E5
:10458000F02000EA511000EB0210C1F3431108447F
:104590002168886010BD0000FEE700004EF60C5058
:1045A000BFF34F8FCEF200000168042201F4E061F6
:1045B000C0F2FA5211430160BFF34F8F00BF00BF3A
:1045C00000BF00BFFAE700002DE9F047D0F80080F7
:1045D00089460746A1B14046494602F05FFD0228E0
:1045E0003CBF0120BDE8F0870446013048D0D8F830
:1045F0001800CA4684420CD22046BDE8F08700BFAE
:10460000D8F810A0BAF1000F1ED0D8F818008245D3
:104610001AD2BAF1020F08F1180517D3564600BF97
:10462000286801368642386828BF0226314602F0E3
:1046300035FD04460130DFD034B3012CDCD05645C3
:104640004FF00004ECD1D7E708F1180528680328DB
:104650003CBF0020BDE8F087022600BF3868314625
:1046600002F01CFD04460130C6D06CB1012CC3D051
:10467000286801368642F1D30020BDE8F08700BFEC
:104680004FF0FF30BDE8F087404631464FF0FF3233
:10469000344603F04BFAB9F1000F05D020B940467B
:1046A0004946224603F042FA40B10124012808BFDE
:1046B0004FF0FF342046BDE8F08700BFD8E9050180
:1046C000C8F81040023988429CBF0138C8F814006D
:1046D00098F8040040F0010088F804002046BDE886
:1046E000F08700002DE9F04F83B08168D0F800A07A
:1046F000044600206061B9B1BAF80A60E6B3DAF89E
:10470000180000268A1E0238824253D2BAF80A00E4
:10471000DAF82C3002FB0030A161E061C0B9022060
:1047200003B0BDE8F08F00BF9AF80000032803D360
:10473000DAF828100029DFD1BAF808000028EED0F6
:10474000DAF82800002600210028A161E061E6D007
:1047500000EB56216FF35F260AEB06003430C4E904
:1047600007104FF0FF385046C4F8308003F094F93A
:1047700040B303B0BDE8F08F504602F08FFC014615
:10478000013013D000207502A0EB46260229C6D3C3
:10479000DAF818008142C2D2AE42B3D3206802F0E8
:1047A0007DFC01460130A6EB0506EFD1012003B0E8
:1047B000BDE8F08F0020C4E90610022003B0BDE878
:1047C000F08F00BFFF204FF0FF0B02900FE000BF03
:1047D0003089B0EB571F40F2BF8200BF70193430F0
:1047E00020625046676103F057F90028C1D1D4F820
:1047F000209099F80000002800F0B08299F80B2072
:10480000E52802F03F01A17103D0120740D50F291E
:104810003ED0C4F830804FF0FF0BE169042000293E
:10482000A7D0626902F120074FF6FF72C0F21F02A3
:1048300097429ED83D4626686FF35F25002DCDD167
:10484000A2690131002AE161C2D070894FF6FF737D
:10485000C0F21F03184400F5C00010EA572FBDD165
:104860003046114602F01AFC0228FFF458AF411CF2
:104870009CD0B169884280F06F82821E02398A42E0
:10488000A06180F0B9807089F16A02FB0011B4E088
:104890000F290DD194F82F104906BED4410600F11E
:1048A000AF805FFA8BF18842B5D10299AFE000BFCB
:1048B0005FEA0B604CD199F8000099F801104708A5
:1048C00047EAC01099F802200844C0B202EBC011B8
:1048D00099F8033001EB5000C0B203EBC01101EBBB
:1048E000500099F80410C0B201EBC01101EB500068
:1048F00099F80510C0B201EBC01101EB500099F816
:104900000610C0B201EBC01101EB500099F807107E
:10491000C0B201EBC01101EB500099F80810C0B211
:1049200001EBC01101EB500099F80910C0B201EB86
:10493000C01101EB5000C0B2410899F80A2041EAC9
:10494000C01002991044C0B2C9B2814200F00A827C
:1049500094F82F00C0077FF45CAF99F8000094F83A
:10496000241088427FF455AF99F8010094F825107F
:1049700088427FF44EAF99F8020094F826108842DE
:104980007FF447AF99F8030094F8271088427FF42A
:1049900040AF99F8040094F8281088427FF439AFAA
:1049A00099F8050094F8291088427FF432AF99F8FD
:1049B000060094F82A1088427FF42BAF99F807007C
:1049C00094F82B1088427FF424AF99F8080094F8EB
:1049D0002C1088427FF41DAF99F8090094F82D102F
:1049E00088427FF416AF99F80A0094F82E10884296
:1049F0007FF40FAFB6E100BF0021E161EEE600BF3A
:104A000099F80D20616900F0BF0B2163114699F8F8
:104A10000D000A460291C9B281427FF4FCAEB9F89A
:104A20001A0000287FF4F7AE99F800000D2100F07D
:104A30003F004843A0F10D05FE2D3FF6ECAEB9F85E
:104A400001600190DAF80C70304601F09FFC37F8F5
:104A5000151000970746084601F098FC87427FF43E
:104A6000DAAEB9F80370002E00F020810198A0F1B1
:104A70000C05FE2D3FF6CFAE384601F087FC0099BD
:104A8000064631F81510084601F080FC86427FF496
:104A9000C2AEB9F80560002F00F00F810198A0F1B7
:104AA0000B05FE2D3FF6B7AE304601F06FFC0099C6
:104AB000074631F81510084601F068FC87427FF47C
:104AC000AAAEB9F80770002E00F0FE800198A0F1A0
:104AD0000A05FE2D3FF69FAE384601F057FC0099BF
:104AE000064631F81510084601F050FC86427FF466
:104AF00092AEB9F80960002F00F0ED800198A0F1A6
:104B00000905FE2D3FF687AE304601F03FFC0099C7
:104B1000074631F81510084601F038FC87427FF44B
:104B20007AAEB9F80E70002E00F0DC800198A0F18A
:104B30000805FE2D3FF66FAE384601F027FC0099C0
:104B4000064631F81510084601F020FC86427FF435
:104B500062AEB9F81060002F00F0CB800198C51F3D
:104B6000FE2D3FF658AE304601F010FC0099074686
:104B700031F81510084601F009FC87427FF44BAE6E
:104B8000B9F81270002E00F0BB800198851FFE2D31
:104B90003FF641AE384601F0F9FB0099064631F880
:104BA0001510084601F0F2FB86427FF434AEB9F8E6
:104BB0001460002F00F0AB800198451FFE2D3FF6DA
:104BC0002AAE304601F0E2FB0099074631F8151095
:104BD000084601F0DBFB87427FF41DAEB9F8167082
:104BE000002E00F09B800198051FFE2D3FF613AEAE
:104BF000384601F0CBFB0099064631F815100846FF
:104C000001F0C4FB86427FF406AEB9F81860002FAD
:104C100000F08B800198C51EFE2D3FF6FCAD30469E
:104C200001F0B4FB0099074631F81510084601F071
:104C3000ADFB87427FF4EFADB9F81C70002E7BD03E
:104C40000198851EFE2D3FF6E6AD384601F09EFB2D
:104C50000099064631F81510084601F097FB864288
:104C60007FF4D9ADB9F81E60002F6CD00198451EB5
:104C7000FE2D3FF6D0AD304601F088FB0099074687
:104C800031F81510084601F081FB87427FF4C3AD6F
:104C900099F8000040065BD5002E59D0DDE90010E0
:104CA00031F8100000287FF4B6AD51E04FF6FF70E8
:104CB00087427FF4B0ADB9F805604FF6FF708642C9
:104CC0007FF4A9ADB9F807704FF6FF7087427FF403
:104CD000A2ADB9F809604FF6FF7086427FF49BAD34
:104CE000B9F80E704FF6FF7087427FF494ADB9F8B3
:104CF00010604FF6FF7086427FF48DADB9F81270E8
:104D00004FF6FF7087427FF486ADB9F814604FF616
:104D1000FF7086427FF47FADB9F816704FF6FF70D2
:104D200087427FF478ADB9F818604FF6FF7086427D
:104D30007FF471ADB9F81C704FF6FF7087427FF4B5
:104D40006AADB9F81E604FF6FF7086427FF463AD1E
:104D5000ABF1010B61E500BF0020E061042003B06E
:104D6000BDE8F08F002003B0BDE8F08F2DE9F04FD3
:104D700081B00446C0690425B8B10F4661694FF699
:104D8000FF72C0F21F0201F1200696420DD8B24612
:104D9000D4F800906FF35F2ABAF1000F0AD009EB44
:104DA0000A003430666120620025E8B201B0BDE837
:104DB000F08F00BFA1690130E06189B1B9F80A0044
:104DC000104400F5C00010EA562FE8D1484602F022
:104DD00065F9022810D20225E8B201B0BDE8F08FD3
:104DE000B9F80800B0EB561FD9D80020E0610425BF
:104DF000E8B201B0BDE8F08F8046013030D0D9F87C
:104E0000180080450ED2A8F1020B02388345C4F881
:104E1000188062D2B9F80A00D9F82C100BFB0010E8
:104E20005CE000BF002FE0D0A1692046FFF7CCFB7B
:104E30008046013003280FD24FF6F871C0F2FF010F
:104E400001EAC00040F20171C0F2020121FA00F54E
:104E5000E8B201B0BDE8F08F484602F05DFF28B12E
:104E60000125E8B201B0BDE8F08F00BF09F13400C0
:104E70004FF40071FBF7DCF9D9F81800A8F1020B28
:104E8000811EB9F80A208B4504D2D9F82C100BFBEF
:104E9000021100E000214FF00007C9F83010A2B164
:104EA0000125484689F8035002F036FF00287FF4B8
:104EB0007CAFD9F83000B9F80A200137411C97427D
:104EC000C9F83010EDD3D9F81800C91BC9F8301053
:104ED00002388345C4F818809CD30020E0615EE767
:104EE0002DE9F04F8FB090F82F7017F0A00F03D07E
:104EF00006200FB0BDE8F08FD0F800A00446DAF825
:104F00000C000025062100BF421832F8062C92B191
:104F100000EB450253886BB19288CAB3425A0435FC
:104F2000002A01F10801EFD1013DF807564605D0EE
:104F300032E000BF0135F80756462DD14EF64F41FD
:104F400005F10C00C4F6C461A0FB0101012000EBD7
:104F50009108B80758BF4FF00108A1680020002948
:104F6000606100F0F9817789002F00F07582B069E7
:104F700000278A1E0238824280F090827089F36A8C
:104F800002FB00300028A161E06140F0F881E3E31A
:104F90000235F8075646D1D094F8240094F82E80B4
:104FA0000B9094F8250041F221090A9094F826000C
:104FB000CDF830A0099094F82700C0F201090890BC
:104FC00094F828004FF0010A079094F829000DF199
:104FD000340B069094F82A000197059094F82B0062
:104FE000049094F82C00039094F82D000290402037
:104FF00084F82F000C98BAF1060FC1680B9852463E
:1050000084F824000A9884F82E8084F825000998F2
:1050100084F82600089884F82700079884F8280068
:10502000069884F82900059884F82A00049884F8E2
:105030002B00039884F82C00029884F82D00C0F00F
:105040008C8008885246002800F08780023952463A
:1050500000F0010343EA4203120448BF83EA090354
:10506000C0F3400242EA43021B0448BF82EA09023D
:10507000C0F3800343EA4203120448BF83EA0903F2
:10508000C0F3C00242EA43021B0448BF82EA09029D
:10509000C0F3001343EA4203120448BF83EA090342
:1050A000C0F3401242EA43021B0448BF82EA0902ED
:1050B000C0F3801343EA4203120448BF83EA0903A2
:1050C000C0F3C01242EA43021B0448BF82EA09024D
:1050D000C0F3002343EA4203120448BF83EA0903F2
:1050E000C0F3402242EA43021B0448BF82EA09029D
:1050F000C0F3802343EA4203120448BF83EA090352
:10510000C0F3C02242EA43021B0448BF82EA0902FC
:10511000C0F3003343EA4203120448BF83EA0903A1
:10512000C0F3403242EA43021B0448BF82EA09024C
:10513000C0F3803343EA4203120448BF83EA090301
:105140005A0042EAD0321804888848BF82EA09022D
:10515000002801F102017FF47BAF072002F00F016C
:1051600001F13003392B88BF01F13703102A0BF806
:1051700000304FD3C2F3031101F13006392E88BF3E
:1051800001F137060BEB0001130A01F8016C00F086
:10519000C18003F00F0303F13006392E88BF03F1FD
:1051A0003706130B01F8026C00F0BE8003F00F030A
:1051B00003F13006392E88BF03F137060438120C8C
:1051C00001F8036CCAD14FF07E010BF8001040B318
:1051D00042420021631893F82460202E22D05618F2
:1051E000771C15D093F82570202F00F0A780B71CEE
:1051F0000ED093F82670202F00F0A280F71C07D065
:1052000093F82730202B00F09D8004315318E1D112
:10521000014607E0013800284FF07E010BF800102E
:10522000D6D10021072801F101029ABF1BF80030F6
:10523000013020236718072A87F824305ED8072812
:1052400001F102039ABF1BF80060013020262244BE
:10525000072B82F8246051D8072801F103029ABF76
:105260001BF80060013020262344072A83F82460BD
:1052700044D8072801F104039ABF1BF800600130ED
:1052800020262244072B82F8246037D8072801F112
:1052900005029ABF1BF80060013020262344072A2C
:1052A00083F824602AD8072801F106039ABF1BF867
:1052B0000060013020262244072B82F824601DD88C
:1052C000072801F107029ABF1BF800600130202671
:1052D0002344072A83F8246010D8072894BF1BF8BA
:1052E00000002020224411F1080F82F8240005D389
:1052F00001F108002044202180F824102046FFF707
:10530000F1F908BB0AF1010ABAF1640F7FF472AE39
:105310001EE000BF023800284FF07E010BF800109D
:105320007FF456AF7DE700BF033800284FF07E01C1
:105330000BF800107FF44CAF73E700BF013171E749
:1053400002316FE703316DE7BAF1640F40F0AE80D0
:1053500007200FB0BDE8F08F3078032803D3B16A7F
:1053600000297FF400AE3089002800F0F581B06A92
:10537000002700210028A161E06100F0ED8100EB31
:1053800057216FF35F27F0193430C4E90710304616
:1053900002F082FB002800F09380042808BF072059
:1053A000002840F0E380B8F1010500F0A5806069B5
:1053B000A0EB4511204600F0DDF9002840F0D68032
:1053C00094F8240094F82520410841EAC0101044C4
:1053D00094F82610C0B201EBC01101EB500094F814
:1053E0002710C0B201EBC01101EB500094F8281057
:1053F000C0B201EBC01101EB500094F82910C0B20B
:1054000001EBC01101EB500094F82A10C0B201EB7F
:10541000C01101EB500094F82B10C0B201EBC01189
:1054200001EB500094F82C10C0B201EBC01101EB5D
:10543000500094F82D10C0B201EBC01101EB5000E8
:10544000C0B2410894F82E2041EAC010E16902EB95
:1054500000084FF6FF799BE0304601F01FFE014641
:10546000013000F07D8100207D02A0EB472700BFC6
:105470000229C0F07181B069814280F06D81AF4234
:10548000FFF477AD206801F009FE01460130A7EB7B
:1054900005074FF00100EBD168E000BF0020C4E930
:1054A000061002200FB0BDE8F08F00BFDDF830A07D
:1054B00004285BD12668019F84F82F703EE500BF69
:1054C000002700BF206A0078E52800D020B9013706
:1054D000474502D167E700BF002720460121FFF7BB
:1054E00045FC00287FF459AFE169304602F0D4FA58
:1054F0000028E7D051E700BFE169504602F0CCFA3E
:10550000A0BB216A0020C861886148610861C86049
:10551000886048600860216A94F824200A7094F832
:1055200025204A7094F826208A7094F82720CA70A3
:1055300094F828200A7194F829204A7194F82A20B6
:105540008A7194F82B20CA7194F82C200A7294F86E
:105550002D204A7294F82E208A7294F82F10226A15
:1055600001F01801117301218AF803100FB0BDE892
:10557000F08F00BF3089B0EB5B1F40F2F58006EB87
:105580000A003430013DBA46C4F814B02062B4D0E9
:10559000504602F081FA0028E8D1206A0F22DAF89A
:1055A0000C10A0F80B2000224283EAB20D235A43CC
:1055B00080F80D8001EB420333F81A6C771CBFB200
:1055C000012FA0F8016003D8A0F8039008E000BF05
:1055D00033F8187C7E1CB6B2012EA0F8037057D8A1
:1055E000A0F80590A0F80790A0F80990A0F80E90F8
:1055F000A0F81090A0F81290A0F81490A0F81690BF
:10560000A0F81890A0F81C90A0F81E9045F040015A
:105610000170E16901208AF8030000294FF00400BD
:10562000A4D0626902F1200B4FF6FF72C0F21F0294
:1056300093459BD85746DA4626686FF35F2ABAF13E
:10564000000F9CD1A2690131002AE16192D07089DA
:105650004FF6FF73C0F21F03184400F5C00010EAB4
:105660005B2F8CD13046114601F018FD022873D310
:10567000411C75D0B169884276D2821E02398A42B5
:10568000A06165D27089F16A02FB001161E000BF80
:1056900033F8167C7E1CB6B2012EA0F80570A1D995
:1056A00033F8147C7E1CB6B2012EA0F807709BD98B
:1056B00033F8127C7E1CB6B2012EA0F8097095D981
:1056C00033F8107C7E1CB6B2012EC78190D933F816
:1056D0000E7C7E1CB6B2012E07827FF68BAF33F8AC
:1056E0000C7C7E1CB6B2012E47827FF685AF33F864
:1056F0000A7C7E1CB6B2012E87827FF67FAF33F81C
:10570000087C7E1CB6B2012EC7827FF679AF33F8D3
:10571000067C7E1CB6B2012E07837FF673AF33F88A
:10572000047C7E1CB6B2012E87837FF66DAF33F802
:10573000023C5F1CBFB2022FC383FFF467AF31F896
:1057400012100029294608BF45F0400160E700BF5C
:105750000021E16113E700BF02200FB0BDE8F08F28
:1057600001200FB0BDE8F08F0020E06104200FB0F1
:10577000BDE8F08FF0B581B00C461F21CFF6E07187
:105780000C4203D0022001B0F0BD00BF8168066862
:105790000546446171B17789B4EB472F18D2B069DF
:1057A0008A1E023882422DD27089F36A02FB0030D1
:1057B00029E000BF3078032802D3B16A0029EAD17A
:1057C0003089B0EB541FDDD9B06A00211BE000BF67
:1057D000304601F063FC0146013023D07F02E41B18
:1057E0000229CFD3B0698142CCD2BC42D8D3286839
:1057F00001F054FC01460130A4EB07044FF0010016
:10580000EED10DE000200028A961E861BAD000EBDC
:1058100054206FF35F2431193431C5E907010020AA
:1058200001B0F0BD012001B0F0BD000040F2E42164
:10583000C2F200010A5C002A1CBF0020704701234D
:105840000A180B5401EB80004168107A0968084778
:1058500040F2E42CC2F2000C0CEB80035B68604465
:10586000007A1B691847000080B540F2E42CC2F2B0
:10587000000C0CEB800EDEF804E06044007ADEF8E9
:1058800008C0BDE88040604740F2E421C2F2000158
:1058900001EB800252680844007A51680847000012
:1058A00080B540F2E42CC2F2000C0CEB800EDEF866
:1058B00004E06044007ADEF80CC0BDE88040604738
:1058C00010B5044600F0E6FA002818BF10BD4CB32E
:1058D000206838B3017829B3A188C288914221D1C8
:1058E0004078FFF7D1FFC0071CD12069013801289B
:1058F00084BF022010BD40F28801C2F2000101EB1A
:105900000010818AB1F5807218BF0A46002A18BFBC
:10591000013A1104828204BF0021816000202060CE
:1059200010BD00BF092010BD10B582B001900091DC
:1059300031B34FF0FF3E00BF01EB0E0C9CF801307D
:10594000202B21D33A2B1FD09CF80230202B27D3B9
:105950003A2B25D09CF80330202B39D33A2B37D063
:105960009CF804400EF1040EA4F13A03B3FA83F359
:105970004FEA531C202C1AD33A2CDDD117E000BF7C
:105980000B21084602B010BD3A3BB3FA83F34FEA4D
:10599000531C0EF1010EBCF1000F0BD122E000BF31
:1059A0003A3BB3FA83F34FEA531C0EF1020EBCF1FB
:1059B000000F17D00978A1F13003092B34D8BEF1BC
:1059C000010F4FF00B0108BF002BDAD10AE000BF36
:1059D0003A3BB3FA83F34FEA531C0EF1030EBCF1CA
:1059E000000FE7D140F28803C2F20003596859B1B1
:1059F0009C688C4204BF00249C609C698C4204BF5C
:105A000000249C6100240C70002188B1012A0170DF
:105A10005860B6D1684601A9002200F035FD014664
:105A2000084602B010BD00BF0B21084602B010BDF1
:105A30005960084602B010BD2DE9F04FADF5117D5B
:105A4000909188B102F03F061546044690A882A9BD
:105A5000324600F019FD074660B10020206038464C
:105A60000DF5117DBDE8F08F092738460DF5117D44
:105A7000BDE8F08FDDF8088202A89099C8F80C0004
:105A800083A8CDF80C8200F08BFF0746D0B116F04A
:105A90001C0F54D0002F00F0E580042F63D140F29A
:105AA0008800C2F200008168002900F0C58080698A
:105AB000002800F0C180122746F00806002F57D0BA
:105AC000E9E000BF9DF93B02002847D440F2880C72
:105AD000C2F2000CDCF808108398859BDDF820E208
